{
  "_format": "hh-sol-artifact-1",
  "contractName": "vote",
  "sourceName": "contracts/vote.sol",
  "abi": [
    {
      "inputs": [],
      "stateMutability": "nonpayable",
      "type": "constructor"
    },
    {
      "inputs": [],
      "name": "REWARD_AMOUNT",
      "outputs": [
        {
          "internalType": "uint256",
          "name": "",
          "type": "uint256"
        }
      ],
      "stateMutability": "view",
      "type": "function"
    },
    {
      "inputs": [],
      "name": "START_AMOUNT",
      "outputs": [
        {
          "internalType": "uint256",
          "name": "",
          "type": "uint256"
        }
      ],
      "stateMutability": "view",
      "type": "function"
    },
    {
      "inputs": [],
      "name": "TIME_DELAY",
      "outputs": [
        {
          "internalType": "uint256",
          "name": "",
          "type": "uint256"
        }
      ],
      "stateMutability": "view",
      "type": "function"
    },
    {
      "inputs": [],
      "name": "VOTE_AMOUNT",
      "outputs": [
        {
          "internalType": "uint256",
          "name": "",
          "type": "uint256"
        }
      ],
      "stateMutability": "view",
      "type": "function"
    },
    {
      "inputs": [
        {
          "internalType": "address",
          "name": "a",
          "type": "address"
        },
        {
          "internalType": "uint256",
          "name": "num",
          "type": "uint256"
        }
      ],
      "name": "canvote",
      "outputs": [
        {
          "internalType": "bool",
          "name": "",
          "type": "bool"
        }
      ],
      "stateMutability": "view",
      "type": "function"
    },
    {
      "inputs": [],
      "name": "get",
      "outputs": [
        {
          "components": [
            {
              "internalType": "address",
              "name": "starter",
              "type": "address"
            },
            {
              "internalType": "string",
              "name": "des",
              "type": "string"
            },
            {
              "internalType": "uint256",
              "name": "numf",
              "type": "uint256"
            },
            {
              "internalType": "uint256",
              "name": "numo",
              "type": "uint256"
            },
            {
              "internalType": "uint256",
              "name": "pass",
              "type": "uint256"
            },
            {
              "internalType": "uint256",
              "name": "time",
              "type": "uint256"
            },
            {
              "internalType": "address[]",
              "name": "favor",
              "type": "address[]"
            },
            {
              "internalType": "address[]",
              "name": "oppose",
              "type": "address[]"
            }
          ],
          "internalType": "struct vote.Proposal[]",
          "name": "",
          "type": "tuple[]"
        }
      ],
      "stateMutability": "nonpayable",
      "type": "function"
    },
    {
      "inputs": [],
      "name": "myERC20",
      "outputs": [
        {
          "internalType": "contract MyERC20",
          "name": "",
          "type": "address"
        }
      ],
      "stateMutability": "view",
      "type": "function"
    },
    {
      "inputs": [
        {
          "internalType": "uint256",
          "name": "num",
          "type": "uint256"
        }
      ],
      "name": "p_favor",
      "outputs": [],
      "stateMutability": "nonpayable",
      "type": "function"
    },
    {
      "inputs": [
        {
          "internalType": "uint256",
          "name": "num",
          "type": "uint256"
        }
      ],
      "name": "p_oppose",
      "outputs": [],
      "stateMutability": "nonpayable",
      "type": "function"
    },
    {
      "inputs": [
        {
          "internalType": "uint256",
          "name": "",
          "type": "uint256"
        }
      ],
      "name": "proposals",
      "outputs": [
        {
          "internalType": "address",
          "name": "starter",
          "type": "address"
        },
        {
          "internalType": "string",
          "name": "des",
          "type": "string"
        },
        {
          "internalType": "uint256",
          "name": "numf",
          "type": "uint256"
        },
        {
          "internalType": "uint256",
          "name": "numo",
          "type": "uint256"
        },
        {
          "internalType": "uint256",
          "name": "pass",
          "type": "uint256"
        },
        {
          "internalType": "uint256",
          "name": "time",
          "type": "uint256"
        }
      ],
      "stateMutability": "view",
      "type": "function"
    },
    {
      "inputs": [],
      "name": "refresh",
      "outputs": [],
      "stateMutability": "nonpayable",
      "type": "function"
    },
    {
      "inputs": [
        {
          "internalType": "string",
          "name": "des",
          "type": "string"
        }
      ],
      "name": "start",
      "outputs": [],
      "stateMutability": "nonpayable",
      "type": "function"
    }
  ],
  "bytecode": "0x60806040523480156200001157600080fd5b5060405162000020906200008f565b6200002b906200014e565b604051809103906000f08015801562000048573d6000803e3d6000fd5b50600160006101000a81548173ffffffffffffffffffffffffffffffffffffffff021916908373ffffffffffffffffffffffffffffffffffffffff16021790555062000185565b6119908062001d7483390190565b600082825260208201905092915050565b7f5a4a55546f6b656e000000000000000000000000000000000000000000000000600082015250565b6000620000e66008836200009d565b9150620000f382620000ae565b602082019050919050565b7f5a4a55546f6b656e53796d626f6c000000000000000000000000000000000000600082015250565b600062000136600e836200009d565b91506200014382620000fe565b602082019050919050565b600060408201905081810360008301526200016981620000d7565b905081810360208301526200017e8162000127565b9050919050565b611bdf80620001956000396000f3fe608060405234801561001057600080fd5b50600436106100b45760003560e01c806396ae58761161007157806396ae587614610194578063c106876b146101b2578063ca8ef89f146101ce578063ccb15b25146101ec578063cf84944214610208578063f8ac93e814610226576100b4565b8063013cf08b146100b95780631842a8aa146100ee578063258e60b61461011e57806348e8f2151461013a5780636d3739c4146101585780636d4ce63c14610176575b600080fd5b6100d360048036038101906100ce919061123a565b610230565b6040516100e596959493929190611350565b60405180910390f35b610108600480360381019061010391906113e4565b610324565b604051610115919061143f565b60405180910390f35b6101386004803603810190610133919061158f565b610544565b005b610142610764565b60405161014f91906115d8565b60405180910390f35b610160610769565b60405161016d9190611652565b60405180910390f35b61017e61078f565b60405161018b9190611904565b60405180910390f35b61019c610a1b565b6040516101a991906115d8565b60405180910390f35b6101cc60048036038101906101c7919061123a565b610a21565b005b6101d6610beb565b6040516101e391906115d8565b60405180910390f35b6102066004803603810190610201919061123a565b610bf1565b005b610210610dbb565b60405161021d91906115d8565b60405180910390f35b61022e610dce565b005b6000818154811061024057600080fd5b90600052602060002090600802016000915090508060000160009054906101000a900473ffffffffffffffffffffffffffffffffffffffff169080600101805461028990611955565b80601f01602080910402602001604051908101604052809291908181526020018280546102b590611955565b80156103025780601f106102d757610100808354040283529160200191610302565b820191906000526020600020905b8154815290600101906020018083116102e557829003601f168201915b5050505050908060020154908060030154908060040154908060050154905086565b60008042603c6000858154811061033e5761033d611987565b5b90600052602060002090600802016005015461035a91906119e5565b101561036a57600091505061053e565b600090505b6000838154811061038357610382611987565b5b906000526020600020906008020160060180549050811015610451578373ffffffffffffffffffffffffffffffffffffffff16600084815481106103ca576103c9611987565b5b906000526020600020906008020160060182815481106103ed576103ec611987565b5b9060005260206000200160009054906101000a900473ffffffffffffffffffffffffffffffffffffffff1673ffffffffffffffffffffffffffffffffffffffff16141561043e57600091505061053e565b808061044990611a3b565b91505061036f565b600090505b6000838154811061046a57610469611987565b5b906000526020600020906008020160070180549050811015610538578373ffffffffffffffffffffffffffffffffffffffff16600084815481106104b1576104b0611987565b5b906000526020600020906008020160070182815481106104d4576104d3611987565b5b9060005260206000200160009054906101000a900473ffffffffffffffffffffffffffffffffffffffff1673ffffffffffffffffffffffffffffffffffffffff16141561052557600091505061053e565b808061053090611a3b565b915050610456565b60019150505b92915050565b600160009054906101000a900473ffffffffffffffffffffffffffffffffffffffff1673ffffffffffffffffffffffffffffffffffffffff166323b872dd33306103e86040518463ffffffff1660e01b81526004016105a593929190611a84565b602060405180830381600087803b1580156105bf57600080fd5b505af11580156105d3573d6000803e3d6000fd5b505050506040513d601f19601f820116820180604052508101906105f79190611ae7565b50610600611068565b33816000019073ffffffffffffffffffffffffffffffffffffffff16908173ffffffffffffffffffffffffffffffffffffffff1681525050600081604001818152505060008160600181815250508181602001819052506000816080018181525050428160a0018181525050600081908060018154018082558091505060019003906000526020600020906008020160009091909190915060008201518160000160006101000a81548173ffffffffffffffffffffffffffffffffffffffff021916908373ffffffffffffffffffffffffffffffffffffffff16021790555060208201518160010190805190602001906106fb9291906110c3565b5060408201518160020155606082015181600301556080820151816004015560a0820151816005015560c0820151816006019080519060200190610740929190611149565b5060e082015181600701908051906020019061075d929190611149565b5050505050565b603c81565b600160009054906101000a900473ffffffffffffffffffffffffffffffffffffffff1681565b60606000805480602002602001604051908101604052809291908181526020016000905b82821015610a125783829060005260206000209060080201604051806101000160405290816000820160009054906101000a900473ffffffffffffffffffffffffffffffffffffffff1673ffffffffffffffffffffffffffffffffffffffff1673ffffffffffffffffffffffffffffffffffffffff16815260200160018201805461083d90611955565b80601f016020809104026020016040519081016040528092919081815260200182805461086990611955565b80156108b65780601f1061088b576101008083540402835291602001916108b6565b820191906000526020600020905b81548152906001019060200180831161089957829003601f168201915b50505050508152602001600282015481526020016003820154815260200160048201548152602001600582015481526020016006820180548060200260200160405190810160405280929190818152602001828054801561096c57602002820191906000526020600020905b8160009054906101000a900473ffffffffffffffffffffffffffffffffffffffff1673ffffffffffffffffffffffffffffffffffffffff1681526020019060010190808311610922575b50505050508152602001600782018054806020026020016040519081016040528092919081815260200182805480156109fa57602002820191906000526020600020905b8160009054906101000a900473ffffffffffffffffffffffffffffffffffffffff1673ffffffffffffffffffffffffffffffffffffffff16815260200190600101908083116109b0575b505050505081525050815260200190600101906107b3565b50505050905090565b6103e881565b60011515610a2f3383610324565b151514610a71576040517f08c379a0000000000000000000000000000000000000000000000000000000008152600401610a6890611b60565b60405180910390fd5b600160009054906101000a900473ffffffffffffffffffffffffffffffffffffffff1673ffffffffffffffffffffffffffffffffffffffff166323b872dd33306101f46040518463ffffffff1660e01b8152600401610ad293929190611a84565b602060405180830381600087803b158015610aec57600080fd5b505af1158015610b00573d6000803e3d6000fd5b505050506040513d601f19601f82011682018060405250810190610b249190611ae7565b50600160008281548110610b3b57610b3a611987565b5b90600052602060002090600802016002016000828254610b5b91906119e5565b9250508190555060008181548110610b7657610b75611987565b5b9060005260206000209060080201600601339080600181540180825580915050600190039060005260206000200160009091909190916101000a81548173ffffffffffffffffffffffffffffffffffffffff021916908373ffffffffffffffffffffffffffffffffffffffff16021790555050565b6101f481565b60011515610bff3383610324565b151514610c41576040517f08c379a0000000000000000000000000000000000000000000000000000000008152600401610c3890611b60565b60405180910390fd5b600160009054906101000a900473ffffffffffffffffffffffffffffffffffffffff1673ffffffffffffffffffffffffffffffffffffffff166323b872dd33306101f46040518463ffffffff1660e01b8152600401610ca293929190611a84565b602060405180830381600087803b158015610cbc57600080fd5b505af1158015610cd0573d6000803e3d6000fd5b505050506040513d601f19601f82011682018060405250810190610cf49190611ae7565b50600160008281548110610d0b57610d0a611987565b5b90600052602060002090600802016003016000828254610d2b91906119e5565b9250508190555060008181548110610d4657610d45611987565b5b9060005260206000209060080201600701339080600181540180825580915050600190039060005260206000200160009091909190916101000a81548173ffffffffffffffffffffffffffffffffffffffff021916908373ffffffffffffffffffffffffffffffffffffffff16021790555050565b6101f46103e8610dcb91906119e5565b81565b60005b600080549050811015611065576000808281548110610df357610df2611987565b5b906000526020600020906008020160040154141580610e43575042603c60008381548110610e2457610e23611987565b5b906000526020600020906008020160050154610e4091906119e5565b10155b15610e4d57611052565b60008181548110610e6157610e60611987565b5b90600052602060002090600802016003015460008281548110610e8757610e86611987565b5b9060005260206000209060080201600201541115610fd357600160009054906101000a900473ffffffffffffffffffffffffffffffffffffffff1673ffffffffffffffffffffffffffffffffffffffff1663a9059cbb60008381548110610ef157610ef0611987565b5b906000526020600020906008020160000160009054906101000a900473ffffffffffffffffffffffffffffffffffffffff166101f46103e8610f3391906119e5565b6040518363ffffffff1660e01b8152600401610f50929190611b80565b602060405180830381600087803b158015610f6a57600080fd5b505af1158015610f7e573d6000803e3d6000fd5b505050506040513d601f19601f82011682018060405250810190610fa29190611ae7565b50600160008281548110610fb957610fb8611987565b5b906000526020600020906008020160040181905550611051565b60008181548110610fe757610fe6611987565b5b9060005260206000209060080201600301546000828154811061100d5761100c611987565b5b906000526020600020906008020160020154116110505760026000828154811061103a57611039611987565b5b9060005260206000209060080201600401819055505b5b5b808061105d90611a3b565b915050610dd1565b50565b604051806101000160405280600073ffffffffffffffffffffffffffffffffffffffff168152602001606081526020016000815260200160008152602001600081526020016000815260200160608152602001606081525090565b8280546110cf90611955565b90600052602060002090601f0160209004810192826110f15760008555611138565b82601f1061110a57805160ff1916838001178555611138565b82800160010185558215611138579182015b8281111561113757825182559160200191906001019061111c565b5b50905061114591906111d3565b5090565b8280548282559060005260206000209081019282156111c2579160200282015b828111156111c15782518260006101000a81548173ffffffffffffffffffffffffffffffffffffffff021916908373ffffffffffffffffffffffffffffffffffffffff16021790555091602001919060010190611169565b5b5090506111cf91906111d3565b5090565b5b808211156111ec5760008160009055506001016111d4565b5090565b6000604051905090565b600080fd5b600080fd5b6000819050919050565b61121781611204565b811461122257600080fd5b50565b6000813590506112348161120e565b92915050565b6000602082840312156112505761124f6111fa565b5b600061125e84828501611225565b91505092915050565b600073ffffffffffffffffffffffffffffffffffffffff82169050919050565b600061129282611267565b9050919050565b6112a281611287565b82525050565b600081519050919050565b600082825260208201905092915050565b60005b838110156112e25780820151818401526020810190506112c7565b838111156112f1576000848401525b50505050565b6000601f19601f8301169050919050565b6000611313826112a8565b61131d81856112b3565b935061132d8185602086016112c4565b611336816112f7565b840191505092915050565b61134a81611204565b82525050565b600060c0820190506113656000830189611299565b81810360208301526113778188611308565b90506113866040830187611341565b6113936060830186611341565b6113a06080830185611341565b6113ad60a0830184611341565b979650505050505050565b6113c181611287565b81146113cc57600080fd5b50565b6000813590506113de816113b8565b92915050565b600080604083850312156113fb576113fa6111fa565b5b6000611409858286016113cf565b925050602061141a85828601611225565b9150509250929050565b60008115159050919050565b61143981611424565b82525050565b60006020820190506114546000830184611430565b92915050565b600080fd5b600080fd5b7f4e487b7100000000000000000000000000000000000000000000000000000000600052604160045260246000fd5b61149c826112f7565b810181811067ffffffffffffffff821117156114bb576114ba611464565b5b80604052505050565b60006114ce6111f0565b90506114da8282611493565b919050565b600067ffffffffffffffff8211156114fa576114f9611464565b5b611503826112f7565b9050602081019050919050565b82818337600083830152505050565b600061153261152d846114df565b6114c4565b90508281526020810184848401111561154e5761154d61145f565b5b611559848285611510565b509392505050565b600082601f8301126115765761157561145a565b5b813561158684826020860161151f565b91505092915050565b6000602082840312156115a5576115a46111fa565b5b600082013567ffffffffffffffff8111156115c3576115c26111ff565b5b6115cf84828501611561565b91505092915050565b60006020820190506115ed6000830184611341565b92915050565b6000819050919050565b600061161861161361160e84611267565b6115f3565b611267565b9050919050565b600061162a826115fd565b9050919050565b600061163c8261161f565b9050919050565b61164c81611631565b82525050565b60006020820190506116676000830184611643565b92915050565b600081519050919050565b600082825260208201905092915050565b6000819050602082019050919050565b6116a281611287565b82525050565b600082825260208201905092915050565b60006116c4826112a8565b6116ce81856116a8565b93506116de8185602086016112c4565b6116e7816112f7565b840191505092915050565b6116fb81611204565b82525050565b600081519050919050565b600082825260208201905092915050565b6000819050602082019050919050565b60006117398383611699565b60208301905092915050565b6000602082019050919050565b600061175d82611701565b611767818561170c565b93506117728361171d565b8060005b838110156117a357815161178a888261172d565b975061179583611745565b925050600181019050611776565b5085935050505092915050565b6000610100830160008301516117c96000860182611699565b50602083015184820360208601526117e182826116b9565b91505060408301516117f660408601826116f2565b50606083015161180960608601826116f2565b50608083015161181c60808601826116f2565b5060a083015161182f60a08601826116f2565b5060c083015184820360c08601526118478282611752565b91505060e083015184820360e08601526118618282611752565b9150508091505092915050565b600061187a83836117b0565b905092915050565b6000602082019050919050565b600061189a8261166d565b6118a48185611678565b9350836020820285016118b685611689565b8060005b858110156118f257848403895281516118d3858261186e565b94506118de83611882565b925060208a019950506001810190506118ba565b50829750879550505050505092915050565b6000602082019050818103600083015261191e818461188f565b905092915050565b7f4e487b7100000000000000000000000000000000000000000000000000000000600052602260045260246000fd5b6000600282049050600182168061196d57607f821691505b6020821081141561198157611980611926565b5b50919050565b7f4e487b7100000000000000000000000000000000000000000000000000000000600052603260045260246000fd5b7f4e487b7100000000000000000000000000000000000000000000000000000000600052601160045260246000fd5b60006119f082611204565b91506119fb83611204565b9250827fffffffffffffffffffffffffffffffffffffffffffffffffffffffffffffffff03821115611a3057611a2f6119b6565b5b828201905092915050565b6000611a4682611204565b91507fffffffffffffffffffffffffffffffffffffffffffffffffffffffffffffffff821415611a7957611a786119b6565b5b600182019050919050565b6000606082019050611a996000830186611299565b611aa66020830185611299565b611ab36040830184611341565b949350505050565b611ac481611424565b8114611acf57600080fd5b50565b600081519050611ae181611abb565b92915050565b600060208284031215611afd57611afc6111fa565b5b6000611b0b84828501611ad2565b91505092915050565b7f596f752063616e6e6f7420766f746520746869732070726f706f73616c000000600082015250565b6000611b4a601d836112b3565b9150611b5582611b14565b602082019050919050565b60006020820190508181036000830152611b7981611b3d565b9050919050565b6000604082019050611b956000830185611299565b611ba26020830184611341565b939250505056fea264697066735822122066974d2ed054f7ce374c8ca095c36cef1b9144397889b59db5f0e3939148df4a64736f6c6343000809003360806040523480156200001157600080fd5b5060405162001990380380620019908339818101604052810190620000379190620002c2565b818181600390805190602001906200005192919062000075565b5080600490805190602001906200006a92919062000075565b5050505050620003ac565b828054620000839062000376565b90600052602060002090601f016020900481019282620000a75760008555620000f3565b82601f10620000c257805160ff1916838001178555620000f3565b82800160010185558215620000f3579182015b82811115620000f2578251825591602001919060010190620000d5565b5b50905062000102919062000106565b5090565b5b808211156200012157600081600090555060010162000107565b5090565b6000604051905090565b600080fd5b600080fd5b600080fd5b600080fd5b6000601f19601f8301169050919050565b7f4e487b7100000000000000000000000000000000000000000000000000000000600052604160045260246000fd5b6200018e8262000143565b810181811067ffffffffffffffff82111715620001b057620001af62000154565b5b80604052505050565b6000620001c562000125565b9050620001d3828262000183565b919050565b600067ffffffffffffffff821115620001f657620001f562000154565b5b620002018262000143565b9050602081019050919050565b60005b838110156200022e57808201518184015260208101905062000211565b838111156200023e576000848401525b50505050565b60006200025b6200025584620001d8565b620001b9565b9050828152602081018484840111156200027a57620002796200013e565b5b620002878482856200020e565b509392505050565b600082601f830112620002a757620002a662000139565b5b8151620002b984826020860162000244565b91505092915050565b60008060408385031215620002dc57620002db6200012f565b5b600083015167ffffffffffffffff811115620002fd57620002fc62000134565b5b6200030b858286016200028f565b925050602083015167ffffffffffffffff8111156200032f576200032e62000134565b5b6200033d858286016200028f565b9150509250929050565b7f4e487b7100000000000000000000000000000000000000000000000000000000600052602260045260246000fd5b600060028204905060018216806200038f57607f821691505b60208210811415620003a657620003a562000347565b5b50919050565b6115d480620003bc6000396000f3fe608060405234801561001057600080fd5b50600436106100b45760003560e01c80633950935111610071578063395093511461017d57806370a08231146101ad57806395d89b41146101dd578063a457c2d7146101fb578063a9059cbb1461022b578063dd62ed3e1461025b576100b4565b806306fdde03146100b9578063095ea7b3146100d757806318160ddd1461010757806323b872dd14610125578063313ce567146101555780633884d63514610173575b600080fd5b6100c161028b565b6040516100ce9190610d90565b60405180910390f35b6100f160048036038101906100ec9190610e4b565b61031d565b6040516100fe9190610ea6565b60405180910390f35b61010f610340565b60405161011c9190610ed0565b60405180910390f35b61013f600480360381019061013a9190610eeb565b61034a565b60405161014c9190610ea6565b60405180910390f35b61015d610379565b60405161016a9190610f5a565b60405180910390f35b61017b610382565b005b61019760048036038101906101929190610e4b565b61047b565b6040516101a49190610ea6565b60405180910390f35b6101c760048036038101906101c29190610f75565b6104b2565b6040516101d49190610ed0565b60405180910390f35b6101e56104fa565b6040516101f29190610d90565b60405180910390f35b61021560048036038101906102109190610e4b565b61058c565b6040516102229190610ea6565b60405180910390f35b61024560048036038101906102409190610e4b565b610603565b6040516102529190610ea6565b60405180910390f35b61027560048036038101906102709190610fa2565b610626565b6040516102829190610ed0565b60405180910390f35b60606003805461029a90611011565b80601f01602080910402602001604051908101604052809291908181526020018280546102c690611011565b80156103135780601f106102e857610100808354040283529160200191610313565b820191906000526020600020905b8154815290600101906020018083116102f657829003601f168201915b5050505050905090565b6000806103286106ad565b90506103358185856106b5565b600191505092915050565b6000600254905090565b6000806103556106ad565b9050610362858285610880565b61036d85858561090c565b60019150509392505050565b60006012905090565b60001515600560003373ffffffffffffffffffffffffffffffffffffffff1673ffffffffffffffffffffffffffffffffffffffff16815260200190815260200160002060009054906101000a900460ff16151514610415576040517f08c379a000000000000000000000000000000000000000000000000000000000815260040161040c906110b5565b60405180910390fd5b61042133612710610b8d565b6001600560003373ffffffffffffffffffffffffffffffffffffffff1673ffffffffffffffffffffffffffffffffffffffff16815260200190815260200160002060006101000a81548160ff021916908315150217905550565b6000806104866106ad565b90506104a78185856104988589610626565b6104a29190611104565b6106b5565b600191505092915050565b60008060008373ffffffffffffffffffffffffffffffffffffffff1673ffffffffffffffffffffffffffffffffffffffff168152602001908152602001600020549050919050565b60606004805461050990611011565b80601f016020809104026020016040519081016040528092919081815260200182805461053590611011565b80156105825780601f1061055757610100808354040283529160200191610582565b820191906000526020600020905b81548152906001019060200180831161056557829003601f168201915b5050505050905090565b6000806105976106ad565b905060006105a58286610626565b9050838110156105ea576040517f08c379a00000000000000000000000000000000000000000000000000000000081526004016105e1906111cc565b60405180910390fd5b6105f782868684036106b5565b60019250505092915050565b60008061060e6106ad565b905061061b81858561090c565b600191505092915050565b6000600160008473ffffffffffffffffffffffffffffffffffffffff1673ffffffffffffffffffffffffffffffffffffffff16815260200190815260200160002060008373ffffffffffffffffffffffffffffffffffffffff1673ffffffffffffffffffffffffffffffffffffffff16815260200190815260200160002054905092915050565b600033905090565b600073ffffffffffffffffffffffffffffffffffffffff168373ffffffffffffffffffffffffffffffffffffffff161415610725576040517f08c379a000000000000000000000000000000000000000000000000000000000815260040161071c9061125e565b60405180910390fd5b600073ffffffffffffffffffffffffffffffffffffffff168273ffffffffffffffffffffffffffffffffffffffff161415610795576040517f08c379a000000000000000000000000000000000000000000000000000000000815260040161078c906112f0565b60405180910390fd5b80600160008573ffffffffffffffffffffffffffffffffffffffff1673ffffffffffffffffffffffffffffffffffffffff16815260200190815260200160002060008473ffffffffffffffffffffffffffffffffffffffff1673ffffffffffffffffffffffffffffffffffffffff168152602001908152602001600020819055508173ffffffffffffffffffffffffffffffffffffffff168373ffffffffffffffffffffffffffffffffffffffff167f8c5be1e5ebec7d5bd14f71427d1e84f3dd0314c0f7b2291e5b200ac8c7c3b925836040516108739190610ed0565b60405180910390a3505050565b600061088c8484610626565b90507fffffffffffffffffffffffffffffffffffffffffffffffffffffffffffffffff811461090657818110156108f8576040517f08c379a00000000000000000000000000000000000000000000000000000000081526004016108ef9061135c565b60405180910390fd5b61090584848484036106b5565b5b50505050565b600073ffffffffffffffffffffffffffffffffffffffff168373ffffffffffffffffffffffffffffffffffffffff16141561097c576040517f08c379a0000000000000000000000000000000000000000000000000000000008152600401610973906113ee565b60405180910390fd5b600073ffffffffffffffffffffffffffffffffffffffff168273ffffffffffffffffffffffffffffffffffffffff1614156109ec576040517f08c379a00000000000000000000000000000000000000000000000000000000081526004016109e390611480565b60405180910390fd5b6109f7838383610ced565b60008060008573ffffffffffffffffffffffffffffffffffffffff1673ffffffffffffffffffffffffffffffffffffffff16815260200190815260200160002054905081811015610a7d576040517f08c379a0000000000000000000000000000000000000000000000000000000008152600401610a7490611512565b60405180910390fd5b8181036000808673ffffffffffffffffffffffffffffffffffffffff1673ffffffffffffffffffffffffffffffffffffffff16815260200190815260200160002081905550816000808573ffffffffffffffffffffffffffffffffffffffff1673ffffffffffffffffffffffffffffffffffffffff1681526020019081526020016000206000828254610b109190611104565b925050819055508273ffffffffffffffffffffffffffffffffffffffff168473ffffffffffffffffffffffffffffffffffffffff167fddf252ad1be2c89b69c2b068fc378daa952ba7f163c4a11628f55a4df523b3ef84604051610b749190610ed0565b60405180910390a3610b87848484610cf2565b50505050565b600073ffffffffffffffffffffffffffffffffffffffff168273ffffffffffffffffffffffffffffffffffffffff161415610bfd576040517f08c379a0000000000000000000000000000000000000000000000000000000008152600401610bf49061157e565b60405180910390fd5b610c0960008383610ced565b8060026000828254610c1b9190611104565b92505081905550806000808473ffffffffffffffffffffffffffffffffffffffff1673ffffffffffffffffffffffffffffffffffffffff1681526020019081526020016000206000828254610c709190611104565b925050819055508173ffffffffffffffffffffffffffffffffffffffff16600073ffffffffffffffffffffffffffffffffffffffff167fddf252ad1be2c89b69c2b068fc378daa952ba7f163c4a11628f55a4df523b3ef83604051610cd59190610ed0565b60405180910390a3610ce960008383610cf2565b5050565b505050565b505050565b600081519050919050565b600082825260208201905092915050565b60005b83811015610d31578082015181840152602081019050610d16565b83811115610d40576000848401525b50505050565b6000601f19601f8301169050919050565b6000610d6282610cf7565b610d6c8185610d02565b9350610d7c818560208601610d13565b610d8581610d46565b840191505092915050565b60006020820190508181036000830152610daa8184610d57565b905092915050565b600080fd5b600073ffffffffffffffffffffffffffffffffffffffff82169050919050565b6000610de282610db7565b9050919050565b610df281610dd7565b8114610dfd57600080fd5b50565b600081359050610e0f81610de9565b92915050565b6000819050919050565b610e2881610e15565b8114610e3357600080fd5b50565b600081359050610e4581610e1f565b92915050565b60008060408385031215610e6257610e61610db2565b5b6000610e7085828601610e00565b9250506020610e8185828601610e36565b9150509250929050565b60008115159050919050565b610ea081610e8b565b82525050565b6000602082019050610ebb6000830184610e97565b92915050565b610eca81610e15565b82525050565b6000602082019050610ee56000830184610ec1565b92915050565b600080600060608486031215610f0457610f03610db2565b5b6000610f1286828701610e00565b9350506020610f2386828701610e00565b9250506040610f3486828701610e36565b9150509250925092565b600060ff82169050919050565b610f5481610f3e565b82525050565b6000602082019050610f6f6000830184610f4b565b92915050565b600060208284031215610f8b57610f8a610db2565b5b6000610f9984828501610e00565b91505092915050565b60008060408385031215610fb957610fb8610db2565b5b6000610fc785828601610e00565b9250506020610fd885828601610e00565b9150509250929050565b7f4e487b7100000000000000000000000000000000000000000000000000000000600052602260045260246000fd5b6000600282049050600182168061102957607f821691505b6020821081141561103d5761103c610fe2565b5b50919050565b7f5468697320757365722068617320636c61696d65642061697264726f7020616c60008201527f7265616479000000000000000000000000000000000000000000000000000000602082015250565b600061109f602583610d02565b91506110aa82611043565b604082019050919050565b600060208201905081810360008301526110ce81611092565b9050919050565b7f4e487b7100000000000000000000000000000000000000000000000000000000600052601160045260246000fd5b600061110f82610e15565b915061111a83610e15565b9250827fffffffffffffffffffffffffffffffffffffffffffffffffffffffffffffffff0382111561114f5761114e6110d5565b5b828201905092915050565b7f45524332303a2064656372656173656420616c6c6f77616e63652062656c6f7760008201527f207a65726f000000000000000000000000000000000000000000000000000000602082015250565b60006111b6602583610d02565b91506111c18261115a565b604082019050919050565b600060208201905081810360008301526111e5816111a9565b9050919050565b7f45524332303a20617070726f76652066726f6d20746865207a65726f2061646460008201527f7265737300000000000000000000000000000000000000000000000000000000602082015250565b6000611248602483610d02565b9150611253826111ec565b604082019050919050565b600060208201905081810360008301526112778161123b565b9050919050565b7f45524332303a20617070726f766520746f20746865207a65726f20616464726560008201527f7373000000000000000000000000000000000000000000000000000000000000602082015250565b60006112da602283610d02565b91506112e58261127e565b604082019050919050565b60006020820190508181036000830152611309816112cd565b9050919050565b7f45524332303a20696e73756666696369656e7420616c6c6f77616e6365000000600082015250565b6000611346601d83610d02565b915061135182611310565b602082019050919050565b6000602082019050818103600083015261137581611339565b9050919050565b7f45524332303a207472616e736665722066726f6d20746865207a65726f20616460008201527f6472657373000000000000000000000000000000000000000000000000000000602082015250565b60006113d8602583610d02565b91506113e38261137c565b604082019050919050565b60006020820190508181036000830152611407816113cb565b9050919050565b7f45524332303a207472616e7366657220746f20746865207a65726f206164647260008201527f6573730000000000000000000000000000000000000000000000000000000000602082015250565b600061146a602383610d02565b91506114758261140e565b604082019050919050565b600060208201905081810360008301526114998161145d565b9050919050565b7f45524332303a207472616e7366657220616d6f756e742065786365656473206260008201527f616c616e63650000000000000000000000000000000000000000000000000000602082015250565b60006114fc602683610d02565b9150611507826114a0565b604082019050919050565b6000602082019050818103600083015261152b816114ef565b9050919050565b7f45524332303a206d696e7420746f20746865207a65726f206164647265737300600082015250565b6000611568601f83610d02565b915061157382611532565b602082019050919050565b600060208201905081810360008301526115978161155b565b905091905056fea264697066735822122036db3a09c51ce9b9b114b659f8add8190ed08bf1e9a1e6e48ec28b70fab33cfe64736f6c63430008090033",
  "linkReferences": {},
  "deployedLinkReferences": {}
}